:100000000C9434000C9451000C9451000C94510049
:100010000C945E000C9451000C9451000C9451000F
:100020000C9451000C9451000C9451000C9451000C
:100030000C9451000C9451000C9451000C945100FC
:100040000C9451000C9451000C9451000C945100EC
:100050000C9451000C9451000C9451000C945100DC
:100060000C9451000C94510011241FBECFEFD8E026
:10007000DEBFCDBF11E0A0E0B1E0EAEBF7E002C0E7
:1000800005900D92A632B107D9F721E0A6E2B1E0C2
:1000900001C01D92AE32B207E1F70E94A3000C949A
:1000A000DB030C940000E8E6F0E08081826080834E
:1000B000ECE6F0E080818260808308951F920F92C9
:1000C0000FB60F9211248F939F93809126019091E8
:1000D000270101969093270180932601399A8AE09F
:1000E0008A95F1F700C03998D99A9F918F910F9016
:1000F0000FBE0F901F9018951092C50080E180935D
:10010000C400E0ECF0E080818260808386E0809330
:10011000C20088E18093C1000895CF93C82F8A3030
:1001200019F48DE00E948D008091C00085FFFCCF06
:10013000C093C600CF9108958091C00087FFFCCF87
:100140008091C6000895259A85B7806185BF419A40
:100150000E947C008EE091E090932B0180932A0115
:1001600080E091E090932901809328010E94530040
:100170008CE191E00E94FD00C2E2D1E010922701E3
:1001800010922601399A78942FEF80E792E021505F
:1001900080409040E1F700C00000F8948091260173
:1001A0009091270180319E4080F42D9A8091260104
:1001B000909127019F938F93DF93CF930E94E70045
:1001C0000F900F900F900F90D9CF2D98EFCFA0E008
:1001D000B0E0EDEEF0E00C94B403AE014B5F5F4F86
:1001E000FA0161917191AF0180912A0190912B01E7
:1001F0000E942D01E2E00C94D0030F931F93CF9344
:10020000DF93E0912A01F0912B01238121FF1BC094
:100210008C01D0E0C0E0F80181918F0160912A014A
:1002200070912B01DB011896ED91FC9119978823B1
:1002300031F00995892B79F3DFEFCFEFECCF8AE02E
:100240000995892B19F08FEF9FEF02C08D2F9C2FFE
:10025000DF91CF911F910F910895ACE0B0E0E3E3FF
:10026000F1E00C94A4036C017B018A01FC0117826C
:100270001682838181FFBEC1CE0101964C01F60139
:100280009381F70193FD859193FF81917F018823ED
:1002900009F4ACC1853239F493FD859193FF8191C6
:1002A0007F01853229F4B60190E00E941603E7CF62
:1002B000512C312C20E02032A0F48B3269F030F444
:1002C000803259F0833269F420612CC08D3239F0CC
:1002D000803339F4216026C02260246023C0286066
:1002E00021C027FD27C030ED380F3A3078F426FFC3
:1002F00006C0FAE05F9E300D1124532E13C08AE031
:10030000389E300D1124332E20620CC08E3221F421
:1003100026FD6CC1206406C08C3611F4206802C032
:10032000883641F4F70193FD859193FF81917F0118
:100330008111C1CF982F9F7D9554933028F40C5F85
:100340001F4F9FE399830DC0833631F0833771F0DF
:10035000833509F05BC022C0F801808189830E5F7C
:100360001F4F44244394512C540115C03801F2E02E
:100370006F0E711CF801A080B18026FF03C0652DAF
:1003800070E002C06FEF7FEFC5012C870E940B0366
:100390002C0183012C852F77222E17C03801F2E023
:1003A0006F0E711CF801A080B18026FF03C0652D7F
:1003B00070E002C06FEF7FEFC5012C870E94000341
:1003C0002C012C852068222E830123FC1BC0832D49
:1003D00090E048165906B0F4B60180E290E00E9421
:1003E00016033A94F4CFF50127FC859127FE8191FD
:1003F0005F01B60190E00E94160331103A94F1E0DB
:100400004F1A51084114510471F7E6C0843611F0B7
:10041000893639F5F80127FF07C060817181828133
:1004200093810C5F1F4F08C060817181072E000C03
:10043000880B990B0E5F1F4F2F76722E97FF09C006
:1004400090958095709561957F4F8F4F9F4F206855
:10045000722E2AE030E0A4010E944603A82EA818BC
:1004600044C0853729F42F7EB22E2AE030E025C023
:10047000F22FF97FBF2E8F36C1F018F4883579F04E
:10048000B5C0803719F0883721F0B0C02F2F206118
:10049000B22EB4FE0DC08B2D8460B82E09C024FF8F
:1004A0000AC09F2F9660B92E06C028E030E005C034
:1004B00020E130E002C020E132E0F801B7FE07C0E1
:1004C00060817181828193810C5F1F4F06C06081C2
:1004D000718180E090E00E5F1F4FA4010E944603EF
:1004E000A82EA818FB2DFF777F2E76FE0BC0372D88
:1004F0003E7FA51450F474FE0AC072FC08C0372D6C
:100500003E7E05C0BA2C372D03C0BA2C01C0B52CD5
:1005100034FF0DC0FE01EA0DF11D8081803311F41E
:10052000397E09C032FF06C0B394B39404C0832F50
:10053000867809F0B39433FD13C030FF06C0B314BE
:1005400098F43A0C532C5B1810C0B31470F4B60135
:1005500080E290E03C870E941603B3943C85F5CF7F
:10056000B31418F43B1802C05A2C312C34FF12C0BB
:10057000B60180E390E03C870E9416033C8532FF81
:1005800017C031FD03C088E790E002C088E590E025
:10059000B6010CC0832F867859F031FF02C08BE280
:1005A00001C080E237FD8DE2B60190E00E941603A3
:1005B000A51438F4B60180E390E00E9416035A9423
:1005C000F7CFAA94F401EA0DF11D8081B60190E005
:1005D0000E941603A110F5CF332009F450CEB601C6
:1005E00080E290E00E9416033A94F6CFF6018681ED
:1005F000978102C08FEF9FEF2C96E2E10C94C0032D
:10060000FC010590615070400110D8F780959095DD
:100610008E0F9F1F0895FC016150704001900110E2
:10062000D8F7809590958E0F9F1F08950F931F9375
:10063000CF93DF93182F092FEB018B8181FD03C02E
:100640008FEF9FEF1EC082FF0FC02E813F818C81F4
:100650009D812817390774F4E881F981CF0101964B
:1006600099838883108306C0E885F985812F0995D1
:10067000892B31F78E819F8101969F838E83812FF5
:10068000902FDF91CF911F910F910895FA01AA2722
:10069000283051F1203181F1E8946F936E7F6E5FC5
:1006A0007F4F8F4F9F4FAF4FB1E03ED0B4E03CD073
:1006B000670F781F891F9A1FA11D680F791F8A1F56
:1006C000911DA11D6A0F711D811D911DA11D20D0BD
:1006D00009F468943F912AE0269F11243019305D77
:1006E0003193DEF6CF010895462F4770405D419368
:1006F000B3E00FD0C9F7F6CF462F4F70405D4A33B5
:1007000018F0495D31FD4052419302D0A9F7EACF7C
:10071000B4E0A6959795879577956795BA95C9F7AB
:1007200000976105710508959B01AC010A2E06949E
:100730005795479537952795BA95C9F7620F731F57
:10074000841F951FA01D08952F923F924F925F9294
:100750006F927F928F929F92AF92BF92CF92DF92D1
:10076000EF92FF920F931F93CF93DF93CDB7DEB736
:10077000CA1BDB0B0FB6F894DEBF0FBECDBF0994CA
:100780002A88398848885F846E847D848C849B8421
:10079000AA84B984C884DF80EE80FD800C811B812F
:1007A000AA81B981CE0FD11D0FB6F894DEBF0FBE5E
:0A07B000CDBFED010895F894FFCFCE
:1007BA00000000010000000000009C000000000092
:1007CA000002000000008D00000000005265616414
:0607DA00790025640A000D
:00000001FF
